:020000021000EC
:100000000030032045010100C1010100C3010100CE
:10001000C5010100C7010100C9010100E2C5F6DF09
:10002000000000000000000000000000CB01010003
:10003000CD01010000000000CF010100D10101004D
:10004000570C01005F0C0100670C01006F0C0100F0
:10005000770C01007F0C0100870C01008F0C010060
:10006000970C01009F0C0100A70C0100AF0C0100D0
:10007000B70C0100BF0C0100C70C0100CF0C010040
:10008000D70C0100DF0C0100E70C0100EF0C0100B0
:10009000F70C0100FF0C0100070D01000F0D01001E
:1000A000170D01001F0D0100270D01002F0D01008C
:1000B000370D01003F0D0100470D01004F0D0100FC
:1000C000570D01005F0D0100670D01006F0D01006C
:1000D000770D01007F0D0100870D01008F0D0100DC
:1000E000970D01009F0D0100A70D0100AF0D01004C
:1000F000B70D0100BF0D0100C70D0100CF0D0100BC
:10010000D70D0100DF0D0100E70D0100EF0D01002B
:10011000F70D0100FF0D0100070E01000F0E010099
:10012000170E01001F0E0100270E01002F0E010007
:10013000B0130100008000200000000000800020BB
:100140006800000010B572B600F075FE0D4B07E0B8
:1001500003F10C049A685968186800F019F82346EE
:10016000094A9342F4D306E01C46596854F8080B38
:1001700000F01DF82346054A9342F5D362B600F01D
:10018000B3F8FEE7300101003C0101004401010029
:10019000002393420AD210B450F8044B41F8044BA8
:1001A00004339342F8D35DF8044B70477047002343
:1001B00003E0002240F8042B04338B42F9D370474C
:1001C000FEE7FEE7FEE7FEE7FEE7FEE7FEE7FEE707
:1001D000FEE7FEE780B586B002AFF860B9607A60EE
:1001E0003B607B680093BB68FA683968024800F09E
:1001F0003DF800BEFDE700BF080F010080B584B0E8
:1002000000AF7860396043F22153FB607B68002BBC
:1002100006D1114B114A40F2D1111148FFF7DAFF14
:100220003B68002B06D10F4B0C4A4FF4E9710C4888
:10023000FFF7D0FF3A6879680B4800F028FE0346C4
:10024000FB60FB68002B01D13B6801E04FF0FF33FE
:1002500018461037BD4680BD480F0100740F0100DD
:10026000540F0100680F0100148000200FB480B506
:10027000A4B000AF0023C7F88C300023C7F8883043
:1002800000237B6007F108037C220021184600F060
:100290000EFE134B1B68002B01D1002318E007F161
:1002A0009C03C7F884303A1D0E4BD7F88410D7F85A
:1002B000980000F04AFBC7F88C00D7F88C203B1D53
:1002C00011461846FFF79AFFC7F88800D7F888301C
:1002D00018469037BD46BDE8804004B0704700BF67
:1002E0001C800020D107010080B582B000AF0C480F
:1002F00000F002FE0B4800F0FFFD0B4A0B490C48D2
:1003000000F0F2FD03467B607B68002B03D10948B7
:1003100000F0F2FD02E0084800F0EEFDFEE700BF4D
:10032000900F0100AC0F0100D80F0100E00F010099
:10033000BF0E0100E80F01000410010080B500AFFE
:10034000094B1B68002B05D1084B094AAF2109480E
:10035000FFF740FF044B1B68074A1046074A126824
:100360001146984700BF80BD208000203C1001004E
:10037000141101002C10010000600840448000208E
:1003800080B500AF094B5B68002B05D1084B094ACB
:10039000BC210948FFF71EFF044B5B68074A104663
:1003A000074A52681146984700BF80BD2080002050
:1003B00054100100301101002C10010000700840A1
:1003C0004480002080B500AF094B9B68002B05D10D
:1003D000084B094AC9210948FFF7FCFE044B9B68FA
:1003E000074A1046074A92681146984700BF80BDE9
:1003F000208000206C1001004C1101002C10010025
:10040000008008404480002080B500AF094BDB68C5
:10041000002B05D1084B094AD6210948FFF7DAFE1F
:10042000044BDB68074A1046074AD26811469847D2
:1004300000BF80BD208000208410010068110100F1
:100440002C100100009008404480002080B500AFCF
:10045000094B1B69002B05D1084B094AE3210948C8
:10046000FFF7B8FE044B1B69074A1046074A12699A
:100470001146984700BF80BD208000209C100100DD
:10048000841101002C10010000A0084044800020CD
:1004900080B500AF094B5B69002B05D1084B094AB9
:1004A000F1210948FFF796FE044B5B69074A1046A5
:1004B000074A52691146984700BF80BD208000203E
:1004C000B4100100A01101002C10010000600940CF
:1004D0004480002080B500AF094B9B69002B05D1FB
:1004E000084B094AFE210948FFF774FE044B9B693B
:1004F000074A1046074A92691146984700BF80BDD7
:1005000020800020CC100100BC1101002C10010043
:10051000007009404480002080B500AF0A4BDB69C1
:10052000002B06D1094B0A4A40F20B110948FFF78C
:1005300051FE054BDB69084A1046084AD26911464C
:10054000984700BF80BD00BF20800020E41001005C
:10055000D81101002C1001000080094044800020C7
:1005600080B500AF0A4B1B6A002B06D1094B0A4A23
:100570004FF48C710948FFF72DFE054B1B6A084AA2
:100580001046084A126A1146984700BF80BD00BF56
:1005900020800020FC100100F41101002C1001004B
:1005A00000F009404480002080B584B000AFF860BE
:1005B000B9607A60FB68002B02D0BB68002B06D1C3
:1005C0001C4B1D4A4FF4BE711C48FFF703FEFB682D
:1005D000002B29D0BB68002B26D0FB68D3F8003E47
:1005E00003F00103002B21D013E000BFFB68D3F818
:1005F000043E03F02003002BF8D0BB681B781A469A
:10060000FB68C3F8202EBB680133BB607B68013BED
:100610007B607B68002BE8D100BFFB689B6803F020
:100620000803002BF9D002E000BF00E000BF103744
:10063000BD4680BD1C1201004012010010120100D5
:1006400080B586B000AFF860B9607A60FB68002BB7
:1006500006D1164B164A40F245111648FFF7BAFD6F
:10066000BB68002B06D1144B114A4FF4A3711148FB
:10067000FFF7B0FD7B68002B06D1104B0C4A40F20F
:1006800047110C48FFF7A6FDFB687B617B691B786F
:100690001A460B4B53F822307A68B9681846FFF7B0
:1006A00083FF002318461837BD4680BD7412010031
:1006B000141301007C120100041301000C1301004B
:1006C0005412010080B586B000AFF860B9607A605E
:1006D000FB68002B06D11A4B1A4A40F206311A4821
:1006E000FFF778FDBB68002B06D1184B154A40F286
:1006F00007311548FFF76EFD7B68002B06D1144BC0
:10070000104A4FF442711048FFF764FDFB687B61AB
:100710007B691B683B613B69002B06D10D4B094A85
:1007200040F20D310848FFF755FD7B68BA687969DA
:10073000386900F087FB034618461837BD4680BD70
:100740002C13010054130100381301004C13010055
:100750000C1301007412010080B586B000AFF86080
:10076000B9607A60FB68002B06D1144B144A40F242
:100770000B111448FFF72EFDBB68002B06D1124B5E
:100780000F4A4FF486710F48FFF724FD7B68002B5A
:1007900006D10E4B0A4A40F20D110A48FFF71AFD26
:1007A000FB687B617B697A68B9681846FFF748FF88
:1007B000034618461837BD4680BD00BF8C130100A4
:1007C0009C130100781301004C1301000C1301006D
:1007D00080B586B000AFF860B9603B601346FB712E
:1007E00000237B6100237B611CE0BB681B68013335
:1007F0007F2B08D9BB681B681946F868FFF7FEFC19
:10080000BB6800221A60BB681B681A46FB68134469
:10081000FA791A70BB681B685A1CBB681A607B693E
:1008200001337B617A693B689A42DEDB00BF00BF1F
:100830001837BD4680BD80B48DB000AFF860B96098
:100840007A603B600023FB61FB68BB61BB695A1C9B
:10085000BA6100221A707B68002B35D0BB681B6818
:10086000FB62FB6A002B2BD1BB6930221A70FB693B
:100870000133FB61FB6962E0FA6A3B6892FBF3F3C8
:100880003B613B693A6802FB03F3FA6AD31ABB6225
:10089000BB6A002B06DABB6A3B623B6AC3F13003DA
:1008A000BB6202E0BB6A3033BB623B69FB62BB697F
:1008B0005A1CBA61BA6AD2B21A70FB690133FB6181
:1008C000FB6A002BD8D139E0BB681B687B627B6A6E
:1008D000002B30D1BB6930221A70FB690133FB61F8
:1008E000FB692CE03B687A6AB2FBF3F37B613B68FF
:1008F0007A6902FB03F37A6AD31A3B623B6A092BDB
:1009000003D83B6A30333B620AE097F83830002B5B
:1009100001D0412200E061223B6A13440A3B3B6262
:100920007B697B62BB695A1CBA613A6AD2B21A709F
:10093000FB690133FB617B6A002BD3D1FB6918464D
:100940003437BD465DF8047B704790B59DB002AF6B
:10095000F860B9607A603B6000233B660023FB656A
:100960000023BB61002387F84A3000233B61FB680A
:100970007B6664E17B6C252B08D07B6CDAB207F1D7
:1009800018013C6801237868A04755E1012387F8E6
:100990004B3000237B650023BB651BE07B6E01337E
:1009A0007B667B6E1B787B647B6C2F2B0DDD7B6CF9
:1009B000392B0ADC7A6D13469B0013445B001A4600
:1009C0007B6C1344303B7B6504E07B6E013B7B66B4
:1009D0000123BB65BB6D002BE0D006233B657B6E1E
:1009E00001337B667B6E1B782E2B24D100233B6565
:1009F0000023BB651BE07B6E01337B667B6E1B783F
:100A00007B647B6C2F2B0DDD7B6C392B0ADC3A6D04
:100A100013469B0013445B001A467B6C1344303B27
:100A20003B6504E07B6E013B7B660123BB65BB6DD0
:100A3000002BE0D002E07B6E013B7B667B6E0133D6
:100A40007B667B6E1B787B647B6C642B1BD07B6C22
:100A5000692B18D07B6C662B15D07B6C462B12D083
:100A60007B6C782B0FD07B6C582B0CD07B6C6F2B56
:100A700009D07B6C622B06D07B6C702B03D07B6C17
:100A8000752B40F096807B6C642B02D07B6C692BBD
:100A900015D1BB681A1DBA601B687B6107F1140190
:100AA00007F11C0097F84B3000930A230122FFF74F
:100AB000C2FEF86507F11C02FB6D13443B667B6CBC
:100AC000582B02D07B6C782B1BD17B6C782B02D1FE
:100AD000002387F84B30BB681A1DBA601B683B6166
:100AE00007F1100107F11C0097F84B300093102319
:100AF0000022FFF7A0FEF86507F11C02FB6D13440E
:100B00003B667B6C6F2B08D07B6C622B05D07B6CBB
:100B1000702B02D07B6C752B2FD1BB681A1DBA606D
:100B20001B683B617B6C6F2B03D1082387F84A302D
:100B300010E07B6C622B03D1022387F84A3009E076
:100B40007B6C702B03D1102387F84A3002E00A2314
:100B500087F84A3097F84A2007F1100107F11C0086
:100B600097F84B30009313460022FFF764FEF865B8
:100B700007F11C02FB6D13443B66FB6D7A6DD31AC3
:100B800007F118013C6820227868A0473B6E002BD3
:100B900052D009E03B6E5A1E3A661A7807F11801E6
:100BA0003C6801237868A0473B6E1B78002BF1D18D
:100BB00042E07B6C632B0ED1BB681A1DBA601B68C8
:100BC000DBB23B643B6CDAB207F118013C680123ED
:100BD0007868A04730E07B6C732B25D1BB681A1D69
:100BE000BA601B68FB64FB6C002B25D0F86C00F02E
:100BF00070F90346FB65FB6D7A6DD31A07F1180196
:100C00003C6820227868A04709E0FB6C5A1CFA6413
:100C10001A7807F118013C6801237868A047FB6C3B
:100C20001B78002BF1D107E07B6CDAB207F11801D9
:100C30003C6801237868A0477B6E01337B667B6E3E
:100C40001B787B647B6C002B7FF494AEBB691846E9
:100C50006C37BD4690BD08B5FFF7BBFA08BD08B5B7
:100C6000FFF7B7FA08BD08B5FFF7B3FA08BD08B536
:100C7000FFF7AFFA08BD08B5FFF7ABFA08BD08B536
:100C8000FFF7A7FA08BD08B5FFF7A3FA08BD08B536
:100C9000FFF79FFA08BD08B5FFF79BFA08BD08B536
:100CA000FFF797FA08BD08B5FFF793FA08BD08B536
:100CB000FFF78FFA08BD08B5FFF78BFA08BD08B536
:100CC000FFF787FA08BD08B5FFF738FB08BD08B580
:100CD000FFF756FB08BD08B5FFF774FB08BD08B564
:100CE000FFF792FB08BD08B5FFF7B0FB08BD08B5DC
:100CF000FFF7CEFB08BD08B5FFF7ECFB08BD08B554
:100D0000FFF70AFC08BD08B5FFF763FA08BD08B590
:100D1000FFF75FFA08BD08B5FFF75BFA08BD08B535
:100D2000FFF757FA08BD08B5FFF753FA08BD08B535
:100D3000FFF74FFA08BD08B5FFF74BFA08BD08B535
:100D4000FFF747FA08BD08B5FFF743FA08BD08B535
:100D5000FFF73FFA08BD08B5FFF73BFA08BD08B535
:100D6000FFF737FA08BD08B5FFF733FA08BD08B535
:100D7000FFF72FFA08BD08B5FFF72BFA08BD08B535
:100D8000FFF727FA08BD08B5FFF723FA08BD08B535
:100D9000FFF71FFA08BD08B5FFF71BFA08BD08B535
:100DA000FFF717FA08BD08B5FFF713FA08BD08B535
:100DB000FFF70FFA08BD08B5FFF70BFA08BD08B535
:100DC000FFF707FA08BD08B5FFF703FA08BD08B535
:100DD000FFF7FFF908BD08B5FFF7FBF908BD08B537
:100DE000FFF7F7F908BD08B5FFF7F3F908BD08B537
:100DF000FFF7EFF908BD08B5FFF7EBF908BD08B537
:100E0000FFF7E7F908BD08B5FFF7E3F908BD08B536
:100E1000FFF7DFF908BD08B5FFF7DBF908BD08B536
:100E2000FFF7D7F908BD08B5FFF7D3F908BD08B536
:100E3000FFF796FB08BD80B400AF00BFBD465DF86C
:100E4000047B704780B586B000AFF860B9607A6007
:100E50003B6043F22153FB82BB68002B11D0FB683F
:100E60001B7B012B09D1FB6808333A687968184667
:100E7000FFF772FC0346FB8204E043F22153FB823E
:100E800000E000BFFB8A18461837BD4680BD80B51C
:100E900084B000AFF860B9607A607A68B968F868C1
:100EA000FFF710FC034618461037BD4680BD0244CC
:100EB0000346934200D1704703F8011BF9E710F88D
:100EC000012B11F8013B012A28BF9A42F7D0D01A12
:100ED0007047034613F8012B002AFBD1181A01387A
:100EE0007047FFFFFFFFFFFF01B40248844601BCCB
:100EF000604700BF01FE001001B40248844601BCF7
:100F0000604700BF09FE001041535345525420452D
:100F100052524F52202220257320223A2066696CBB
:100F2000652022257322204C696E652022256422CB
:100F30002066756E6374696F6E206E616D65202228
:100F4000257322200A00FFFF4E554C4C20213D20E6
:100F50006368000066736C5F64656275675F636FEA
:100F60006E736F6C652E63003020213D2073697AAB
:100F70006500FFFF446267436F6E736F6C655F537C
:100F8000656E644461746152656C6961626C650090
:100F900057656C636F6D6520696E206E6F726D6151
:100FA0006C20776F726C64210D0A000054686973BD
:100FB00020697320612074657874207072696E7482
:100FC00065642066726F6D206E6F726D616C207744
:100FD0006F726C64210D0A0054657374320D0A003F
:100FE00054657374310D0A00426F74682073747213
:100FF000696E67732061726520657175616C210D82
:101000000A000000426F746820737472696E67731F
:1010100020617265206E6F7420657175616C210DA1
:101020000A00FFFF66616C736500000066736C5F09
:10103000666C6578636F6D6D2E6300FF735F666C21
:101040006578636F6D6D49727148616E646C65722D
:101050005B305D00735F666C6578636F6D6D4972C0
:101060007148616E646C65725B315D00735F666CC4
:101070006578636F6D6D49727148616E646C6572FD
:101080005B325D00735F666C6578636F6D6D49728E
:101090007148616E646C65725B335D00735F666C92
:1010A0006578636F6D6D49727148616E646C6572CD
:1010B0005B345D00735F666C6578636F6D6D49725C
:1010C0007148616E646C65725B355D00735F666C60
:1010D0006578636F6D6D49727148616E646C65729D
:1010E0005B365D00735F666C6578636F6D6D49722A
:1010F0007148616E646C65725B375D00735F666C2E
:101100006578636F6D6D49727148616E646C65726C
:101110005B385D00464C4558434F4D4D305F44723F
:101120006976657249525148616E646C657200FF60
:10113000464C4558434F4D4D315F44726976657258
:1011400049525148616E646C657200FF464C4558C7
:10115000434F4D4D325F4472697665724952514832
:10116000616E646C657200FF464C4558434F4D4DAF
:10117000335F44726976657249525148616E646C9E
:10118000657200FF464C4558434F4D4D345F4472E5
:101190006976657249525148616E646C657200FFF0
:1011A000464C4558434F4D4D355F447269766572E4
:1011B00049525148616E646C657200FF464C455857
:1011C000434F4D4D365F44726976657249525148BE
:1011D000616E646C657200FF464C4558434F4D4D3F
:1011E000375F44726976657249525148616E646C2A
:1011F000657200FF464C4558434F4D4D385F447271
:101200006976657249525148616E646C657200FF7F
:1012100066736C5F75736172742E63002128284EAB
:10122000554C4C203D3D206261736529207C7C201B
:10123000284E554C4C203D3D2064617461292900A5
:1012400055534152545F5772697465426C6F636BBA
:10125000696E670000600840007008400080084028
:101260000090084000A0084000600940007009405C
:101270000080094068616E646C650000757361727E
:10128000745F616461707465722E6300636F6E6673
:1012900069670000636F6E6669672D3E696E7374DF
:1012A000616E6365203C202873697A656F662873D8
:1012B0005F557361727441646170746572426173E9
:1012C0006529202F2073697A656F6628555341522E
:1012D000545F54797065202A29290000735F557383
:1012E00061727441646170746572426173655B63BD
:1012F0006F6E6669672D3E696E7374616E63655DBE
:1013000000FFFFFF64617461000000006C656E67A0
:10131000746800FF48414C5F5561727453656E6498
:10132000426C6F636B696E6700FFFFFF77726974D1
:101330006548616E646C650073657269616C5F6DB0
:10134000616E616765722E630000000062756666FB
:10135000657200FF53657269616C4D616E6167650E
:10136000725F57726974650073657269616C436F6F
:101370006E6669670000000073657269616C5F707A
:101380006F72745F756172742E63000073657269A9
:10139000616C48616E646C6500FFFFFF53657269A4
:1013A000616C5F55617274577269746500FFFFFF6D
:0400000310000145A3
:00000001FF
